{
  "_format": "hh-sol-artifact-1",
  "contractName": "EthMail",
  "sourceName": "contracts/EthMail.sol",
  "abi": [
    {
      "inputs": [
        {
          "internalType": "address",
          "name": "_verifier",
          "type": "address"
        }
      ],
      "stateMutability": "nonpayable",
      "type": "constructor"
    },
    {
      "anonymous": false,
      "inputs": [
        {
          "indexed": false,
          "internalType": "string",
          "name": "domain",
          "type": "string"
        },
        {
          "indexed": false,
          "internalType": "address",
          "name": "owner",
          "type": "address"
        },
        {
          "indexed": false,
          "internalType": "string",
          "name": "publicKey",
          "type": "string"
        }
      ],
      "name": "DomainRegistered",
      "type": "event"
    },
    {
      "anonymous": false,
      "inputs": [
        {
          "indexed": false,
          "internalType": "string",
          "name": "domain",
          "type": "string"
        },
        {
          "indexed": false,
          "internalType": "address",
          "name": "owner",
          "type": "address"
        },
        {
          "indexed": false,
          "internalType": "string",
          "name": "publicKey",
          "type": "string"
        }
      ],
      "name": "DomainUpdated",
      "type": "event"
    },
    {
      "anonymous": false,
      "inputs": [
        {
          "indexed": true,
          "internalType": "address",
          "name": "sender",
          "type": "address"
        },
        {
          "indexed": true,
          "internalType": "address",
          "name": "receiver",
          "type": "address"
        }
      ],
      "name": "HandshakeCompleted",
      "type": "event"
    },
    {
      "anonymous": false,
      "inputs": [
        {
          "indexed": true,
          "internalType": "address",
          "name": "sender",
          "type": "address"
        },
        {
          "indexed": true,
          "internalType": "address",
          "name": "receiver",
          "type": "address"
        }
      ],
      "name": "HandshakeCreated",
      "type": "event"
    },
    {
      "inputs": [
        {
          "internalType": "string",
          "name": "domainName",
          "type": "string"
        },
        {
          "internalType": "address",
          "name": "sender",
          "type": "address"
        },
        {
          "internalType": "bytes",
          "name": "receiverEncryptedRandomStrings",
          "type": "bytes"
        }
      ],
      "name": "completeHandshake",
      "outputs": [],
      "stateMutability": "nonpayable",
      "type": "function"
    },
    {
      "inputs": [
        {
          "internalType": "string",
          "name": "domainName",
          "type": "string"
        },
        {
          "internalType": "address",
          "name": "receiver",
          "type": "address"
        },
        {
          "internalType": "bytes",
          "name": "senderEncryptedRandomStrings",
          "type": "bytes"
        },
        {
          "internalType": "bytes",
          "name": "receiverEncryptedRandomStrings",
          "type": "bytes"
        }
      ],
      "name": "createHandshake",
      "outputs": [],
      "stateMutability": "nonpayable",
      "type": "function"
    },
    {
      "inputs": [
        {
          "internalType": "address",
          "name": "user",
          "type": "address"
        }
      ],
      "name": "getAddedUsers",
      "outputs": [
        {
          "internalType": "bytes[]",
          "name": "",
          "type": "bytes[]"
        }
      ],
      "stateMutability": "view",
      "type": "function"
    },
    {
      "inputs": [
        {
          "internalType": "address",
          "name": "user",
          "type": "address"
        }
      ],
      "name": "getDomainByOwner",
      "outputs": [
        {
          "internalType": "string",
          "name": "",
          "type": "string"
        }
      ],
      "stateMutability": "view",
      "type": "function"
    },
    {
      "inputs": [
        {
          "internalType": "address",
          "name": "user",
          "type": "address"
        },
        {
          "internalType": "address",
          "name": "reciever",
          "type": "address"
        }
      ],
      "name": "getHandshakes",
      "outputs": [
        {
          "internalType": "bytes",
          "name": "",
          "type": "bytes"
        }
      ],
      "stateMutability": "view",
      "type": "function"
    },
    {
      "inputs": [
        {
          "internalType": "uint256",
          "name": "senderHash",
          "type": "uint256"
        }
      ],
      "name": "getMessages",
      "outputs": [
        {
          "internalType": "string[]",
          "name": "",
          "type": "string[]"
        }
      ],
      "stateMutability": "view",
      "type": "function"
    },
    {
      "inputs": [
        {
          "internalType": "address",
          "name": "user",
          "type": "address"
        }
      ],
      "name": "getNonce",
      "outputs": [
        {
          "internalType": "uint256",
          "name": "",
          "type": "uint256"
        }
      ],
      "stateMutability": "view",
      "type": "function"
    },
    {
      "inputs": [
        {
          "internalType": "string",
          "name": "domain",
          "type": "string"
        }
      ],
      "name": "lookup",
      "outputs": [
        {
          "internalType": "address",
          "name": "owner",
          "type": "address"
        },
        {
          "internalType": "string",
          "name": "publicKey",
          "type": "string"
        }
      ],
      "stateMutability": "view",
      "type": "function"
    },
    {
      "inputs": [
        {
          "internalType": "string",
          "name": "domain",
          "type": "string"
        },
        {
          "internalType": "string",
          "name": "publickey",
          "type": "string"
        }
      ],
      "name": "registerDomain",
      "outputs": [],
      "stateMutability": "nonpayable",
      "type": "function"
    },
    {
      "inputs": [
        {
          "internalType": "string",
          "name": "encryptedMsg",
          "type": "string"
        },
        {
          "internalType": "bytes32",
          "name": "lastMsgHash",
          "type": "bytes32"
        },
        {
          "internalType": "uint256[2]",
          "name": "_pA",
          "type": "uint256[2]"
        },
        {
          "internalType": "uint256[2][2]",
          "name": "_pB",
          "type": "uint256[2][2]"
        },
        {
          "internalType": "uint256[2]",
          "name": "_pC",
          "type": "uint256[2]"
        },
        {
          "internalType": "uint256[3]",
          "name": "_pubSignals",
          "type": "uint256[3]"
        }
      ],
      "name": "sendMessage",
      "outputs": [],
      "stateMutability": "nonpayable",
      "type": "function"
    }
  ],
  "bytecode": "0x60806040523480156200001157600080fd5b5060405162002799380380620027998339818101604052810190620000379190620000e9565b80600660006101000a81548173ffffffffffffffffffffffffffffffffffffffff021916908373ffffffffffffffffffffffffffffffffffffffff160217905550506200011b565b600080fd5b600073ffffffffffffffffffffffffffffffffffffffff82169050919050565b6000620000b18262000084565b9050919050565b620000c381620000a4565b8114620000cf57600080fd5b50565b600081519050620000e381620000b8565b92915050565b6000602082840312156200010257620001016200007f565b5b60006200011284828501620000d2565b91505092915050565b61266e806200012b6000396000f3fe608060405234801561001057600080fd5b506004361061009e5760003560e01c8063d1ac4c5611610066578063d1ac4c561461016b578063d6618d5914610187578063e58a0f82146101b7578063ea9637fa146101d3578063f67187ac146102035761009e565b80632d0335ab146100a35780633d557a2d146100d357806387a3d55514610103578063ae36853d1461011f578063cdc2a3181461014f575b600080fd5b6100bd60048036038101906100b89190611177565b610234565b6040516100ca91906111bd565b60405180910390f35b6100ed60048036038101906100e89190611177565b61027d565b6040516100fa919061132a565b60405180910390f35b61011d60048036038101906101189190611481565b610395565b005b61013960048036038101906101349190611525565b6105b0565b6040516101469190611669565b60405180910390f35b6101696004803603810190610164919061172c565b61069f565b005b61018560048036038101906101809190611858565b610824565b005b6101a1600480360381019061019c9190611904565b610ae1565b6040516101ae919061198e565b60405180910390f35b6101d160048036038101906101cc91906119b0565b610c10565b005b6101ed60048036038101906101e89190611177565b610e08565b6040516101fa9190611ab5565b60405180910390f35b61021d60048036038101906102189190611ad7565b610ed9565b60405161022b929190611b2f565b60405180910390f35b6000600560008373ffffffffffffffffffffffffffffffffffffffff1673ffffffffffffffffffffffffffffffffffffffff168152602001908152602001600020549050919050565b6060600460008373ffffffffffffffffffffffffffffffffffffffff1673ffffffffffffffffffffffffffffffffffffffff168152602001908152602001600020805480602002602001604051908101604052809291908181526020016000905b8282101561038a5783829060005260206000200180546102fd90611b8e565b80601f016020809104026020016040519081016040528092919081815260200182805461032990611b8e565b80156103765780601f1061034b57610100808354040283529160200191610376565b820191906000526020600020905b81548152906001019060200180831161035957829003601f168201915b5050505050815260200190600101906102de565b505050509050919050565b8161039f81610fdb565b6103de576040517f08c379a00000000000000000000000000000000000000000000000000000000081526004016103d590611c31565b60405180910390fd5b6000839050600073ffffffffffffffffffffffffffffffffffffffff1660008260405161040b9190611c8d565b908152602001604051809103902060000160009054906101000a900473ffffffffffffffffffffffffffffffffffffffff1673ffffffffffffffffffffffffffffffffffffffff1614610493576040517f08c379a000000000000000000000000000000000000000000000000000000000815260040161048a90611cf0565b60405180910390fd5b336000826040516104a49190611c8d565b908152602001604051809103902060000160006101000a81548173ffffffffffffffffffffffffffffffffffffffff021916908373ffffffffffffffffffffffffffffffffffffffff160217905550826000826040516105049190611c8d565b908152602001604051809103902060010190816105219190611ebc565b5083600160003373ffffffffffffffffffffffffffffffffffffffff1673ffffffffffffffffffffffffffffffffffffffff168152602001908152602001600020908161056e9190611fe9565b507f0dad0789e5f00393faf50d323c2013426a76f5c3a9c84df042d6535bd7d361d78433856040516105a2939291906120bb565b60405180910390a150505050565b6060600260008360001b8152602001908152602001600020805480602002602001604051908101604052809291908181526020016000905b8282101561069457838290600052602060002001805461060790611b8e565b80601f016020809104026020016040519081016040528092919081815260200182805461063390611b8e565b80156106805780601f1061065557610100808354040283529160200191610680565b820191906000526020600020905b81548152906001019060200180831161066357829003601f168201915b5050505050815260200190600101906105e8565b505050509050919050565b6000839050600080826040516106b59190611c8d565b908152602001604051809103902060000160009054906101000a900473ffffffffffffffffffffffffffffffffffffffff1690503373ffffffffffffffffffffffffffffffffffffffff168173ffffffffffffffffffffffffffffffffffffffff1614610757576040517f08c379a000000000000000000000000000000000000000000000000000000000815260040161074e90612172565b60405180910390fd5b826000836040516107689190611c8d565b908152602001604051809103902060020160008673ffffffffffffffffffffffffffffffffffffffff1673ffffffffffffffffffffffffffffffffffffffff16815260200190815260200160002090816107c29190611fe9565b503373ffffffffffffffffffffffffffffffffffffffff168473ffffffffffffffffffffffffffffffffffffffff167fefaecf4fa4b74ad28888f74b412bec89823a0d442be81b978c845ecd1bd2a5b960405160405180910390a35050505050565b6000600660009054906101000a900473ffffffffffffffffffffffffffffffffffffffff1673ffffffffffffffffffffffffffffffffffffffff166311479fea868686866040518563ffffffff1660e01b8152600401610887949392919061227a565b602060405180830381865afa1580156108a4573d6000803e3d6000fd5b505050506040513d601f19601f820116820180604052508101906108c891906122f9565b90508061090a576040517f08c379a000000000000000000000000000000000000000000000000000000000815260040161090190612372565b60405180910390fd5b8160006003811061091e5761091d612392565b5b6020020135600560003373ffffffffffffffffffffffffffffffffffffffff1673ffffffffffffffffffffffffffffffffffffffff16815260200190815260200160002054146109a3576040517f08c379a000000000000000000000000000000000000000000000000000000000815260040161099a9061240d565b60405180910390fd5b6000826001600381106109b9576109b8612392565b5b602002013560001b90506002600082815260200190815260200160002088908060018154018082558091505060019003906000526020600020016000909190919091509081610a089190611ebc565b506040518060400160405280888152602001428152506003600083815260200190815260200160002060008201518160000155602082015181600101559050506001600560003373ffffffffffffffffffffffffffffffffffffffff1673ffffffffffffffffffffffffffffffffffffffff16815260200190815260200160002054610a94919061245c565b600560003373ffffffffffffffffffffffffffffffffffffffff1673ffffffffffffffffffffffffffffffffffffffff168152602001908152602001600020819055505050505050505050565b60606000600160008573ffffffffffffffffffffffffffffffffffffffff1673ffffffffffffffffffffffffffffffffffffffff168152602001908152602001600020604051610b319190612513565b908152602001604051809103902060020160008373ffffffffffffffffffffffffffffffffffffffff1673ffffffffffffffffffffffffffffffffffffffff1681526020019081526020016000208054610b8a90611b8e565b80601f0160208091040260200160405190810160405280929190818152602001828054610bb690611b8e565b8015610c035780601f10610bd857610100808354040283529160200191610c03565b820191906000526020600020905b815481529060010190602001808311610be657829003601f168201915b5050505050905092915050565b600084905060008082604051610c269190611c8d565b908152602001604051809103902060000160009054906101000a900473ffffffffffffffffffffffffffffffffffffffff1690503373ffffffffffffffffffffffffffffffffffffffff168173ffffffffffffffffffffffffffffffffffffffff1614610cc8576040517f08c379a0000000000000000000000000000000000000000000000000000000008152600401610cbf9061259c565b60405180910390fd5b83600083604051610cd99190611c8d565b908152602001604051809103902060020160008773ffffffffffffffffffffffffffffffffffffffff1673ffffffffffffffffffffffffffffffffffffffff1681526020019081526020016000209081610d339190611fe9565b50600460008673ffffffffffffffffffffffffffffffffffffffff1673ffffffffffffffffffffffffffffffffffffffff16815260200190815260200160002083908060018154018082558091505060019003906000526020600020016000909190919091509081610da59190611fe9565b508473ffffffffffffffffffffffffffffffffffffffff163373ffffffffffffffffffffffffffffffffffffffff167f431a16d03bd9c2ac897451f68658fde77914660d8171d2a079668e15d16c9c0960405160405180910390a3505050505050565b6060600160008373ffffffffffffffffffffffffffffffffffffffff1673ffffffffffffffffffffffffffffffffffffffff1681526020019081526020016000208054610e5490611b8e565b80601f0160208091040260200160405190810160405280929190818152602001828054610e8090611b8e565b8015610ecd5780601f10610ea257610100808354040283529160200191610ecd565b820191906000526020600020905b815481529060010190602001808311610eb057829003601f168201915b50505050509050919050565b600060606000839050600081604051610ef29190611c8d565b908152602001604051809103902060000160009054906101000a900473ffffffffffffffffffffffffffffffffffffffff16600082604051610f349190611c8d565b9081526020016040518091039020600101808054610f5190611b8e565b80601f0160208091040260200160405190810160405280929190818152602001828054610f7d90611b8e565b8015610fca5780601f10610f9f57610100808354040283529160200191610fca565b820191906000526020600020905b815481529060010190602001808311610fad57829003601f168201915b505050505090509250925050915091565b60008082905060006040518060400160405280600881526020017f2e6574684d61696c000000000000000000000000000000000000000000000000815250905060088251101561103057600092505050611100565b60005b60088110156110f85781818151811061104f5761104e612392565b5b602001015160f81c60f81b7effffffffffffffffffffffffffffffffffffffffffffffffffffffffffffff191683826008865161108c91906125bc565b611096919061245c565b815181106110a7576110a6612392565b5b602001015160f81c60f81b7effffffffffffffffffffffffffffffffffffffffffffffffffffffffffffff1916146110e55760009350505050611100565b80806110f0906125f0565b915050611033565b506001925050505b919050565b6000604051905090565b600080fd5b600080fd5b600073ffffffffffffffffffffffffffffffffffffffff82169050919050565b600061114482611119565b9050919050565b61115481611139565b811461115f57600080fd5b50565b6000813590506111718161114b565b92915050565b60006020828403121561118d5761118c61110f565b5b600061119b84828501611162565b91505092915050565b6000819050919050565b6111b7816111a4565b82525050565b60006020820190506111d260008301846111ae565b92915050565b600081519050919050565b600082825260208201905092915050565b6000819050602082019050919050565b600081519050919050565b600082825260208201905092915050565b60005b8381101561123e578082015181840152602081019050611223565b60008484015250505050565b6000601f19601f8301169050919050565b600061126682611204565b611270818561120f565b9350611280818560208601611220565b6112898161124a565b840191505092915050565b60006112a0838361125b565b905092915050565b6000602082019050919050565b60006112c0826111d8565b6112ca81856111e3565b9350836020820285016112dc856111f4565b8060005b8581101561131857848403895281516112f98582611294565b9450611304836112a8565b925060208a019950506001810190506112e0565b50829750879550505050505092915050565b6000602082019050818103600083015261134481846112b5565b905092915050565b600080fd5b600080fd5b7f4e487b7100000000000000000000000000000000000000000000000000000000600052604160045260246000fd5b61138e8261124a565b810181811067ffffffffffffffff821117156113ad576113ac611356565b5b80604052505050565b60006113c0611105565b90506113cc8282611385565b919050565b600067ffffffffffffffff8211156113ec576113eb611356565b5b6113f58261124a565b9050602081019050919050565b82818337600083830152505050565b600061142461141f846113d1565b6113b6565b9050828152602081018484840111156114405761143f611351565b5b61144b848285611402565b509392505050565b600082601f8301126114685761146761134c565b5b8135611478848260208601611411565b91505092915050565b600080604083850312156114985761149761110f565b5b600083013567ffffffffffffffff8111156114b6576114b5611114565b5b6114c285828601611453565b925050602083013567ffffffffffffffff8111156114e3576114e2611114565b5b6114ef85828601611453565b9150509250929050565b611502816111a4565b811461150d57600080fd5b50565b60008135905061151f816114f9565b92915050565b60006020828403121561153b5761153a61110f565b5b600061154984828501611510565b91505092915050565b600081519050919050565b600082825260208201905092915050565b6000819050602082019050919050565b600081519050919050565b600082825260208201905092915050565b60006115a58261157e565b6115af8185611589565b93506115bf818560208601611220565b6115c88161124a565b840191505092915050565b60006115df838361159a565b905092915050565b6000602082019050919050565b60006115ff82611552565b611609818561155d565b93508360208202850161161b8561156e565b8060005b85811015611657578484038952815161163885826115d3565b9450611643836115e7565b925060208a0199505060018101905061161f565b50829750879550505050505092915050565b6000602082019050818103600083015261168381846115f4565b905092915050565b600067ffffffffffffffff8211156116a6576116a5611356565b5b6116af8261124a565b9050602081019050919050565b60006116cf6116ca8461168b565b6113b6565b9050828152602081018484840111156116eb576116ea611351565b5b6116f6848285611402565b509392505050565b600082601f8301126117135761171261134c565b5b81356117238482602086016116bc565b91505092915050565b6000806000606084860312156117455761174461110f565b5b600084013567ffffffffffffffff81111561176357611762611114565b5b61176f86828701611453565b935050602061178086828701611162565b925050604084013567ffffffffffffffff8111156117a1576117a0611114565b5b6117ad868287016116fe565b9150509250925092565b6000819050919050565b6117ca816117b7565b81146117d557600080fd5b50565b6000813590506117e7816117c1565b92915050565b600080fd5b60008190508260206002028201111561180e5761180d6117ed565b5b92915050565b6000819050826040600202820111156118305761182f6117ed565b5b92915050565b600081905082602060030282011115611852576118516117ed565b5b92915050565b6000806000806000806101a087890312156118765761187561110f565b5b600087013567ffffffffffffffff81111561189457611893611114565b5b6118a089828a01611453565b96505060206118b189828a016117d8565b95505060406118c289828a016117f2565b94505060806118d389828a01611814565b9350506101006118e589828a016117f2565b9250506101406118f789828a01611836565b9150509295509295509295565b6000806040838503121561191b5761191a61110f565b5b600061192985828601611162565b925050602061193a85828601611162565b9150509250929050565b600082825260208201905092915050565b600061196082611204565b61196a8185611944565b935061197a818560208601611220565b6119838161124a565b840191505092915050565b600060208201905081810360008301526119a88184611955565b905092915050565b600080600080608085870312156119ca576119c961110f565b5b600085013567ffffffffffffffff8111156119e8576119e7611114565b5b6119f487828801611453565b9450506020611a0587828801611162565b935050604085013567ffffffffffffffff811115611a2657611a25611114565b5b611a32878288016116fe565b925050606085013567ffffffffffffffff811115611a5357611a52611114565b5b611a5f878288016116fe565b91505092959194509250565b600082825260208201905092915050565b6000611a878261157e565b611a918185611a6b565b9350611aa1818560208601611220565b611aaa8161124a565b840191505092915050565b60006020820190508181036000830152611acf8184611a7c565b905092915050565b600060208284031215611aed57611aec61110f565b5b600082013567ffffffffffffffff811115611b0b57611b0a611114565b5b611b1784828501611453565b91505092915050565b611b2981611139565b82525050565b6000604082019050611b446000830185611b20565b8181036020830152611b568184611a7c565b90509392505050565b7f4e487b7100000000000000000000000000000000000000000000000000000000600052602260045260246000fd5b60006002820490506001821680611ba657607f821691505b602082108103611bb957611bb8611b5f565b5b50919050565b7f446f6d61696e206e616d65206d75737420656e642077697468202e6574684d6160008201527f696c000000000000000000000000000000000000000000000000000000000000602082015250565b6000611c1b602283611a6b565b9150611c2682611bbf565b604082019050919050565b60006020820190508181036000830152611c4a81611c0e565b9050919050565b600081905092915050565b6000611c6782611204565b611c718185611c51565b9350611c81818560208601611220565b80840191505092915050565b6000611c998284611c5c565b915081905092915050565b7f446f6d61696e20616c7265616479207265676973746572656400000000000000600082015250565b6000611cda601983611a6b565b9150611ce582611ca4565b602082019050919050565b60006020820190508181036000830152611d0981611ccd565b9050919050565b60008190508160005260206000209050919050565b60006020601f8301049050919050565b600082821b905092915050565b600060088302611d727fffffffffffffffffffffffffffffffffffffffffffffffffffffffffffffffff82611d35565b611d7c8683611d35565b95508019841693508086168417925050509392505050565b6000819050919050565b6000611db9611db4611daf846111a4565b611d94565b6111a4565b9050919050565b6000819050919050565b611dd383611d9e565b611de7611ddf82611dc0565b848454611d42565b825550505050565b600090565b611dfc611def565b611e07818484611dca565b505050565b5b81811015611e2b57611e20600082611df4565b600181019050611e0d565b5050565b601f821115611e7057611e4181611d10565b611e4a84611d25565b81016020851015611e59578190505b611e6d611e6585611d25565b830182611e0c565b50505b505050565b600082821c905092915050565b6000611e9360001984600802611e75565b1980831691505092915050565b6000611eac8383611e82565b9150826002028217905092915050565b611ec58261157e565b67ffffffffffffffff811115611ede57611edd611356565b5b611ee88254611b8e565b611ef3828285611e2f565b600060209050601f831160018114611f265760008415611f14578287015190505b611f1e8582611ea0565b865550611f86565b601f198416611f3486611d10565b60005b82811015611f5c57848901518255600182019150602085019450602081019050611f37565b86831015611f795784890151611f75601f891682611e82565b8355505b6001600288020188555050505b505050505050565b60008190508160005260206000209050919050565b601f821115611fe457611fb581611f8e565b611fbe84611d25565b81016020851015611fcd578190505b611fe1611fd985611d25565b830182611e0c565b50505b505050565b611ff282611204565b67ffffffffffffffff81111561200b5761200a611356565b5b6120158254611b8e565b612020828285611fa3565b600060209050601f8311600181146120535760008415612041578287015190505b61204b8582611ea0565b8655506120b3565b601f19841661206186611f8e565b60005b8281101561208957848901518255600182019150602085019450602081019050612064565b868310156120a657848901516120a2601f891682611e82565b8355505b6001600288020188555050505b505050505050565b600060608201905081810360008301526120d58186611a7c565b90506120e46020830185611b20565b81810360408301526120f68184611a7c565b9050949350505050565b7f4f6e6c792074686520646f6d61696e206f776e65722063616e20636f6d706c6560008201527f746520612068616e647368616b65000000000000000000000000000000000000602082015250565b600061215c602e83611a6b565b915061216782612100565b604082019050919050565b6000602082019050818103600083015261218b8161214f565b9050919050565b82818337505050565b6121a760408383612192565b5050565b600060029050919050565b600081905092915050565b6000819050919050565b6121d760408383612192565b5050565b60006121e783836121cb565b60408301905092915050565b600082905092915050565b6000604082019050919050565b612214816121ab565b61221e81846121b6565b9250612229826121c1565b8060005b838110156122625761223f82846121f3565b61224987826121db565b9650612254836121fe565b92505060018101905061222d565b505050505050565b61227660608383612192565b5050565b600061016082019050612290600083018761219b565b61229d604083018661220b565b6122aa60c083018561219b565b6122b861010083018461226a565b95945050505050565b60008115159050919050565b6122d6816122c1565b81146122e157600080fd5b50565b6000815190506122f3816122cd565b92915050565b60006020828403121561230f5761230e61110f565b5b600061231d848285016122e4565b91505092915050565b7f496e76616c69642070726f6f6600000000000000000000000000000000000000600082015250565b600061235c600d83611a6b565b915061236782612326565b602082019050919050565b6000602082019050818103600083015261238b8161234f565b9050919050565b7f4e487b7100000000000000000000000000000000000000000000000000000000600052603260045260246000fd5b7f496e76616c6964206e6f6e636500000000000000000000000000000000000000600082015250565b60006123f7600d83611a6b565b9150612402826123c1565b602082019050919050565b60006020820190508181036000830152612426816123ea565b9050919050565b7f4e487b7100000000000000000000000000000000000000000000000000000000600052601160045260246000fd5b6000612467826111a4565b9150612472836111a4565b925082820190508082111561248a5761248961242d565b5b92915050565b6000815461249d81611b8e565b6124a78186611c51565b945060018216600081146124c257600181146124d75761250a565b60ff198316865281151582028601935061250a565b6124e085611f8e565b60005b83811015612502578154818901526001820191506020810190506124e3565b838801955050505b50505092915050565b600061251f8284612490565b915081905092915050565b7f4f6e6c792074686520646f6d61696e206f776e65722063616e2063726561746560008201527f20612068616e647368616b650000000000000000000000000000000000000000602082015250565b6000612586602c83611a6b565b91506125918261252a565b604082019050919050565b600060208201905081810360008301526125b581612579565b9050919050565b60006125c7826111a4565b91506125d2836111a4565b92508282039050818111156125ea576125e961242d565b5b92915050565b60006125fb826111a4565b91507fffffffffffffffffffffffffffffffffffffffffffffffffffffffffffffffff820361262d5761262c61242d565b5b60018201905091905056fea26469706673582212203ad66d8a6098840c892824cbd59308c565225837191e46befc7cbd59453e50e264736f6c63430008110033",
  "linkReferences": {},
  "deployedLinkReferences": {}
}